:100000000C9434000C9446000C9446000C9446006A
:100010000C9446000C9446000C9446000C94460048
:100020000C9446000C9446000C9446000C94460038
:100030000C9446000C94A3000C9446000C944600CB
:100040000C9446000C9446000C9446000C94460018
:100050000C9446000C9446000C9446000C94460008
:100060000C9446000C94460011241FBECFEFD8E03C
:10007000DEBFCDBF21E0A0E0B1E001C01D92AC32F7
:10008000B207E1F70E9416010C947A010C9400006B
:1000900030991DC0F8941092070189B18370809344
:1000A0002A0129B140912A01207230E0C9019595B9
:1000B00087959595879595958795842B80932A01AB
:1000C00080912A0180932B0187E085B978944A9921
:1000D00003C081E080930701809107018823E1F04C
:1000E00090912B01809129019817B1F080912801FE
:1000F000887F809328018091280190912B01892B82
:10010000809328018091280185B985B180932801C9
:1001100080912B018093290180912B01883031F44B
:1001200080912B0180912A018093290181E08093A5
:100130000F01089580912B018F5F80932B0181E047
:100140008093070108951F920F920FB60F9211240A
:100150002F933F934F935F936F937F938F939F93CF
:10016000AF93BF93CF93DF93EF93FF9385E09FEF20
:100170009093850080938400C0E0D0E0FE01EE0FF4
:10018000FF1FEE0FFF1FEE0FFF1FE050FF4F878195
:100190008130A1F5FE01EE0FFF1FEE0FFF1FEE0FE6
:1001A000FF1FE050FF4F85819681019696838583DE
:1001B000258136818081918182179307F8F4F89424
:1001C000FE01EE0FFF1FEE0FFF1FEE0FFF1FE050AF
:1001D000FF4F16821582178282819381892B71F0DD
:1001E0007894FE01EE0FFF1FEE0FFF1FEE0FFF1FB3
:1001F000E050FF4F0280F381E02D09952196C53034
:10020000D10509F0BBCFFF91EF91DF91CF91BF9165
:10021000AF919F918F917F916F915F914F913F919E
:100220002F910F900FBE0F901F9018958BB1876282
:100230008BB988B1836088B985B18093280185B175
:100240008F6085B982E087B98FE084B985E09FEF40
:100250009093850080938400E1E8F0E08081887FBE
:100260008083808183608083EFE6F0E0808181601D
:100270008083789489B1837080932A0189B1209119
:100280002A01807290E0959587959595879595952B
:100290008795822B80932A0180912B0180912A01DE
:1002A0008093290188EE93E09093010180930001EF
:1002B0008AE990E090930301809302011092060175
:1002C000109205011092070184EF91E090930901CB
:1002D0008093080188E490E090930B0180930A01D9
:1002E00010920E0110920D01EFE0F1E0108281E01A
:0802F0008083FFCFF894FFCFDB
:00000001FF
