:100000000C9434000C9451000C9451000C94510049
:100010000C9451000C9451000C9451000C9451001C
:100020000C9451000C9451000C9451000C9451000C
:100030000C9451000C9451000C9451000C945100FC
:100040000C9451000C9451000C948F000C945100AE
:100050000C9451000C9451000C9451000C945100DC
:100060000C9451000C94510011241FBECFEFD8E026
:10007000DEBFCDBF11E0A0E0B1E0E6E8F1E002C0F4
:1000800005900D92A030B107D9F721E0A0E0B1E0D2
:1000900001C01D92A332B207E1F70E94B6000C9492
:1000A000C1000C9400001092C50087E68093C40044
:1000B000E1ECF0E08081886980830895F894E0ECB9
:1000C000F0E0908195FFFDCF90910001983121F4EF
:1000D00093E19093C60005C0983019F491E1909394
:1000E000C6008093C600809100018150809300017A
:1000F00078940895F894E0ECF0E080818823ECF7A0
:100100002091010130E0F901ED5FFE4F80812F5F0A
:100110003F4F2F71307820930101789408951F92FA
:100120000F920FB60F9211242F938F939F93EF93FB
:10013000FF932091C6008091020190E0FC01ED5FE9
:10014000FE4F208301968F719078809302018091F9
:1001500000018F5F80930001FF91EF919F918F913C
:100160002F910F900FBE0F901F90189578940E94BA
:10017000530083E18093C6000E947A000E945E00D3
:06018000FBCFF894FFCF55
:00000001FF
