S01000006D61696E5F365F322E7372656349
S11300000C9434000C9446000C9446000C94460066
S11300100C9446000C9446000C9446000C94460044
S11300200C9446000C9446000C9446000C94460034
S11300300C9446000C94BA000C9446000C944600B0
S11300400C9446000C9446000C9446000C94460014
S11300500C9446000C9446000C9446000C94460004
S11300600C9446000C94460011241FBECFEFD8E038
S1130070DEBFCDBF21E0A0E0B1E001C01D92A033FE
S1130080B207E1F70E9480010C94CE010C940000A9
S1130090309905C081E080930001109201014A99D2
S11300A005C081E08093010110920001809100015C
S11300B08823C9F089B1837080932E0129B14091BE
S11300C02E01207230E0C901959587959595879505
S11300D095958795842B80932E0180912E01809392
S11300E02F0187E085B9809101018823B1F08091C7
S11300F02C01887F80932C0180912C0190912F01F9
S1130100892B80932C0180912C0185B985B1809332
S11301102C0180912F0180932D0180912F01883033
S113012021F480912E0180932F0180912F018093DF
S11301302D0181E080931301089580912F018F5F39
S113014080932F0181E080930B010895E42FF0E068
S1130150EE0FFF1FEE0FFF1FEE0FFF1FEC5FFE4FB2
S1130160718360839383828316821582178281E070
S1130170848308951F920F920FB60F9211242F9328
S11301803F934F935F936F937F938F939F93AF931B
S1130190BF93CF93DF93EF93FF93C0E0D0E0FE01D2
S11301A0EE0FFF1FEE0FFF1FEE0FFF1FEC5FFE4F62
S11301B08781813009F08CC0FE01EE0FFF1FEE0F26
S11301C0FF1FEE0FFF1FEC5FFE4F8481813009F0AB
S11301D04FC0809102019091030101969093030115
S11301E080930201883E934009F072C0FE01EE0F35
S11301F0FF1FEE0FFF1FEE0FFF1FEC5FFE4F858109
S1130200968101969683858385B115B825813681BB
S11302108081918182179307F8F4F894FE01EE0F20
S1130220FF1FEE0FFF1FEE0FFF1FEC5FFE4F168246
S11302301582178282819381892B71F07894FE0153
S1130240EE0FFF1FEE0FFF1FEE0FFF1FEC5FFE4FC1
S11302500280F381E02D09958091020190910301C0
S1130260883E9340A9F5109203011092020130C018
S1130270FE01EE0FFF1FEE0FFF1FEE0FFF1FEC5FDF
S1130280FE4F8581968101969683858325813681EB
S11302908081918128173907D9F4F894FE01EE0F73
S11302A0FF1FEE0FFF1FEE0FFF1FEC5FFE4F1682C6
S11302B0158217827894FE01EE0FFF1FEE0FFF1FC9
S11302C0EE0FFF1FEC5FFE4F0280F381E02D0995D6
S11302D02196C530D10509F062CFFF91EF91DF91EE
S11302E0CF91BF91AF919F918F917F916F915F91CA
S11302F04F913F912F910F900FBE0F901F90189523
S11303008BB187628BB988B1836088B985B18093DA
S11303102C0185B18F6085B982E087B98FE084B9FB
S11303208EEF90E09093850080938400E1E8F0E004
S11303308081887F8083808182608083EFE6F0E023
S1130340808181608083789489B1837080932E0149
S113035089B120912E01807290E0959587959595AD
S1130360879595958795822B80932E0180912E01F8
S113037080932F0140E068EE73E08DE990E00E94E5
S1130380A60041E062E370E088E490E00E94A600E9
S113039081E080930B0180931301FFCFF894FFCF8A
S9030000FC
