S00C00006D61696E2E7372656373
S11300000C9434000C9451000C9451000C94510045
S11300100C9451000C9451000C9451000C94510018
S11300200C9451000C9451000C9451000C94510008
S11300300C9451000C94A7000C9451000C945100A2
S11300400C9451000C9451000C9451000C945100E8
S11300500C9451000C9451000C9451000C945100D8
S11300600C9451000C94510011241FBECFEFD8E022
S1130070DEBFCDBF11E0A0E0B1E0E4E2F4E002C0F5
S113008005900D92AA30B107D9F721E0AAE0B1E0BA
S113009001C01D92A933B207E1F70E9465010C94D7
S11300A010020C9400002FB7F89440910C01509169
S11300B00D01842B952B90930D0180930C012FBF80
S11300C07894089588E090E00E94530081E0809342
S11300D015010895309904C081E090E00E94530016
S11300E04A9904C082E090E00E9453008091380154
S11300F0883021F484E090E00E94530081E08093F2
S11301001D0108954FB7F89420910C0130910D0111
S1130110809590958223932390930D0180930C01F5
S11301204FBF78940895E42FF0E0EE0FFF1FEE0F19
S1130130FF1FEE0FFF1FE25FFE4F71836083938307
S1130140828316821582178281E0848308951F9228
S11301500F920FB60F921124EF92FF920F931F93F9
S11301602F933F934F935F936F937F938F939F93BB
S1130170AF93BF93CF93DF93EF93FF9300E011E02E
S1130180C0E0D0E00F2EFEE0EF2EF1E0FF2EF02DC8
S1130190FE01EE0FFF1FEE0FFF1FEE0FFF1FE25FCA
S11301A0FE4F8781813009F072C0FE01EE0FFF1F00
S11301B0EE0FFF1FEE0FFF1FE25FFE4F84818130C1
S11301C0E1F580910A0190910B01019690930B0146
S11301D080930A01883E934009F059C0FE01EE0F56
S11301E0FF1FEE0FFF1FEE0FFF1FE25FFE4F858123
S11301F0968101969683858325813681F7018081D6
S1130200918128173907A1F4F894FE01EE0FFF1F1E
S1130210EE0FFF1FEE0FFF1FE25FFE4F16821582E7
S1130220F7011782F801808191810E94530078942C
S113023010920B0110920A012AC0FE01EE0FFF1F5B
S1130240EE0FFF1FEE0FFF1FE25FFE4F85819681C9
S113025001969683858325813681F701808191817A
S113026028173907A1F4F894FE01EE0FFF1FEE0FD3
S1130270FF1FEE0FFF1FE25FFE4F16821582F7018C
S11302801782F801808191810E945300789421960D
S11302900E5F1F4FC530D10509F07ACFFF91EF9162
S11302A0DF91CF91BF91AF919F918F917F916F918A
S11302B05F914F913F912F911F910F91FF90EF907C
S11302C00F900FBE0F901F9018958BB187628BB95A
S11302D088B1836088B985B18093360185B18F6018
S11302E085B982E087B98FE084B9E1E8F0E08081E4
S11302F0887F8083808182608083EFE6F0E0808164
S1130300816080838EEF90E09093850080938400D9
S1130310789489B183708093370189B12091370132
S1130320807290E095958795959587959595879595
S1130330822B80933701809137018093380140E00C
S113034068EE73E082E690E00E94930041E062E38D
S113035070E08AE690E00E949300EEE0F1E081E034
S113036087838787C7E080910C0190910D0181FFFD
S1130370FACF82E090E00E9482002FC080910C01AD
S113038090910D0183FF1BC088E090E00E948200E1
S113039080913601887F8093360190913801809155
S11303A03601892B809336018091360185B985B158
S11303B080933601809138018F5F8093380180915A
S11303C00C0190910D0182FF08C084E090E00E942E
S11303D08200809137018093380180910C019091C3
S11303E00D0180FFCBCF81E090E00E94820089B1B3
S11303F083708093370199B1209137019072892FCE
S113040090E0959587959595879595958795822BF9
S1130410809337018091370180933801C5B9A3CF08
S1070420F894FFCF7A
S10D042410002000400080000001D9
S9030000FC
