S01000006D61696E5F365F322E7372656349
S11300000C9434000C9451000C9451000C94510045
S11300100C9451000C9451000C9451000C94510018
S11300200C9451000C9451000C94C5010C94510093
S11300300C9451000C9451000C9451000C945100F8
S11300400C9451000C9451000C9466000C945100D3
S11300500C9451000C9451000C9451000C945100D8
S11300600C9451000C94510011241FBECFEFD8E022
S1130070DEBFCDBF11E0A0E0B1E0E2E3FDE002C0ED
S113008005900D92AC35B107D9F722E0ACE5B1E0AB
S113009001C01D92A633B207E1F70E9481020C94BD
S11300A097060C9400001092C50087E68093C40064
S11300B0E1ECF0E08081886980830895E0ECF0E071
S11300C0908195FFFDCF8093C60008951F920F92F3
S11300D00FB60F9211242F933F934F935F936F9317
S11300E07F938F939F93AF93BF93EF93FF9320914D
S11300F0C60080915F0190E0FC01E05AFE4F20832E
S113010001968F71907880935F0180915E018F5F7B
S113011080935E01883119F483E10E945E00FF91AF
S1130120EF91BF91AF919F918F917F916F915F916B
S11301304F913F912F910F900FBE0F901F901895E4
S1130140EF92FF920F931F93CF93DF937C018B0168
S11301508BE10E945E008BE50E945E00CAE0D0E065
S1130160C701BE010E946203F82E80E3860F0E943D
S11301705E0080E38F0D0E945E008BE30E945E00B0
S1130180C801BE010E946203C82F80E3860F0E944B
S11301905E0080E38C0F0E945E0088E40E945E0093
S11301A0DF91CF911F910F91FF90EF900895CF931E
S11301B0DF93815291409F938F9381E091E09F93CD
S11301C08F93CCEDD1E0DF93CF930E94C603888157
S11301D00F900F900F900F900F900F90882339F08D
S11301E0CDEDD1E00E945E0089918111FBCF83E4C3
S11301F00E945E00DF91CF910895CF93DF939C011D
S1130200220F331F220F331F820F931F9F938F934D
S113021081E091E09F938F93CCEDD1E0DF93CF9376
S11302200E94C60388810F900F900F900F900F903B
S11302300F90882339F0CDEDD1E00E945E008991C2
S11302408111FBCF8DE60E945E0086E50E945E0070
S1130250DF91CF91089580910001811124C081E044
S113026080930001ECE7F0E080818E7F80838081C1
S1130270886880838FE19EE40197F1F700C0000055
S1130280EAE7F0E0808180648083808186FDFDCF91
S113029080917800909179009093DB018093DA014A
S11302A00E94D70020C0ECE7F0E08081877780834C
S11302B08081816080838FE19EE40197F1F700C023
S11302C00000EAE7F0E0808180648083808186FD1D
S11302D0FDCF80917800909179009093DB01809319
S11302E0DA010E94FD008AE00E945E0008952091D8
S11302F078003091790040E050E0209382013093FF
S113030083014093840150938501A8EEB3E00E94D9
S113031098032FEF33E040E050E00E947603AFEF04
S1130320B0E00E94980328EE33E040E050E00E94E1
S11303307603209380013093810128BD0895CF93E3
S1130340DF9380912C021F928F9381E091E09F9321
S11303508F93CCEDD1E0DF93CF930E94C6038881C5
S11303600F900F900F900F900F900F90882339F0FB
S1130370CDEDD1E00E945E0089918111FBCF85E231
S11303800E945E00DF91CF9108951F920F920FB6E5
S11303900F9211242F933F934F935F936F937F9307
S11303A08F939F93AF93BF93CF93DF93EF93FF9379
S11303B08091810086FF09C080918600909187001A
S11303C090932F0280932E0283C080918600909197
S11303D087009093310280933002C0912E02D09115
S11303E02F02C817D90768F48C1B9D0BA0E0B0E05E
S11303F08093860190938701A0938801B09389012B
S11304000DC001978C1B9D0BA0E0B0E0809386018A
S113041090938701A0938801B093890120915C0196
S113042030915D012C173D0770F4CE01821B930BB4
S1130430A0E0B0E08093320290933302A0933402A0
S1130440B09335020EC0CE010197821B930BA0E03E
S1130450B0E08093320290933302A0933402B093BD
S113046035028091320290913302A0913402B0910E
S11304703502843F9140A105B10561F48AEF90E013
S1130480A0E0B0E08093320290933302A093340250
S1130490B093350220918601309187014091880103
S11304A050918901A4E6B0E00E94980320913202A1
S11304B03091330240913402509135020E94760308
S11304C084E6821B80932C02D0935D01C0935C016F
S11304D0E1E8F0E0908180E489278083FF91EF9147
S11304E0DF91CF91BF91AF919F918F917F916F9148
S11304F05F914F913F912F910F900FBE0F901F90DE
S11305001895CF93DF93CDB7DEB7C755D1090FB692
S1130510F894DEBF0FBECDBFEAE8F1E08AED91E0CA
S113052020E22193E817F907E1F784B5836384BDDA
S113053085B58B6085BD89EF87BDE1E8F0E08081FA
S11305408360808380818F7B8083EFE6F0E080810D
S1130550806280837894E4E6F0E080818E7F8083FB
S1130560EAE7F0E0808187688083ECE7F0E080814F
S1130570886C808380E28AB90E94530088E1E4E0B9
S1130580F1E0DE01119601900D928A95E1F78EE07B
S1130590ECE1F1E0DE01599601900D928A95E1F7C4
S11305A080E1EAE2F1E0DE01979601900D928A95EE
S11305B0E1F781E2EAE3F1E0DE01D79601900D92E2
S11305C08A95E1F70F2EFAE8CF2EF1E0DF2EF02D19
S11305D00F2EFBE8EF2EF1E0FF2EF02D60E270E02D
S11305E084E090E00E94A00080E20E945E0080E22D
S11305F00E945E0080E20E945E0080E20E945E0033
S113060080E20E945E0080E20E945E0080E20E941E
S11306105E0080E20E945E0080E20E945E0080E252
S11306200E945E000E94770161E070E081E090E04A
S11306300E94A0008981882351F08E010E5F1F4F14
S11306400E945E00F80181918F018111F9CF898D9B
S1130650882351F08E01065E1F4F0E945E00F80150
S113066081918F018111F9CF0E942B018FA18823E1
S113067051F08E01085D1F4F0E945E00F8018191C8
S11306808F018111F9CF0E942B018FA9882351F08A
S11306908E01085C1F4F0E945E00F80181918F015A
S11306A08111F9CF0E949F01F6018081882309F40A
S11306B095CF87010E945E00F80181918F0181111D
S11306C0F9CF8CCF97FB072E16F4009407D077FD53
S11306D009D00E94A30307FC05D03EF490958195B0
S11306E09F4F0895709561957F4F0895A1E21A2E4A
S11306F0AA1BBB1BFD010DC0AA1FBB1FEE1FFF1FC2
S1130700A217B307E407F50720F0A21BB30BE40B11
S1130710F50B661F771F881F991F1A9469F7609558
S11307207095809590959B01AC01BD01CF01089512
S11307300E94B703A59F900DB49F900DA49F800DB8
S1130740911D11240895AA1BBB1B51E107C0AA1FC8
S1130750BB1FA617B70710F0A61BB70B881F991F5E
S11307605A95A9F780959095BC01CD010895A29F53
S1130770B001B39FC001A39F700D811D1124911D71
S1130780B29F700D811D1124911D0895AEE0B0E05B
S1130790ECECF3E00C946E060D891E8986E08C83E4
S11307A01A8309838FEF9FE79E838D83AE01475E93
S11307B05F4F6F89788DCE0101960E94E803EF8127
S11307C0F885E00FF11F10822E96E4E00C948A065F
S11307D0ACE0B0E0EEEEF3E00C9460067C016B015B
S11307E08A01FC0117821682838181FFBDC1CE017B
S11307F001964C01F7019381F60193FD859193FFD6
S113080081916F01882309F4ABC1853239F493FDDA
S1130810859193FF81916F01853229F4B70190E0AE
S11308200E94D005E7CF512C312C20E02032A0F4D7
S11308308B3269F030F4803259F0833269F42061EC
S11308402CC08D3239F0803339F4216026C0226007
S1130850246023C0286021C027FD27C030ED380F55
S11308603A3078F426FF06C0FAE05F9E300D11247A
S1130870532E13C08AE0389E300D1124332E20628B
S11308800CC08E3221F426FD6BC1206406C08C3668
S113089011F4206802C0883641F4F60193FD859175
S11308A093FF81916F018111C1CF982F9F7D955442
S11308B0933028F40C5F1F4FFFE3F9830DC0833698
S11308C031F0833771F0833509F05BC022C0F80141
S11308D0808189830E5F1F4F44244394512C54011B
S11308E015C03801F2E06F0E711CF801A080B180D0
S11308F026FF03C0652D70E002C06FEF7FEFC501D6
S11309002C870E94C5052C0183012C852F77222E6C
S113091017C03801F2E06F0E711CF801A080B1809D
S113092026FF03C0652D70E002C06FEF7FEFC501A5
S11309302C870E94BA052C012C852068222E830165
S113094023FC1BC0832D90E048165906B0F4B70170
S113095080E290E00E94D0053A94F4CFF50127FCA0
S1130960859127FE81915F01B70190E00E94D00537
S113097031103A94F1E04F1A51084114510471F7BF
S1130980E5C0843611F0893639F5F80127FF07C030
S113099060817181828193810C5F1F4F08C06081E7
S11309A07181882777FD8095982F0E5F1F4F2F76D2
S11309B0B22E97FF09C090958095709561957F4FF1
S11309C08F4F9F4F2068B22E2AE030E0A4010E948E
S11309D00206A82EA81844C0853729F42F7EB22E0B
S11309E02AE030E025C0F22FF97FBF2E8F36C1F008
S11309F018F4883579F0B4C0803719F0883721F0BD
S1130A00AFC02F2F2061B22EB4FE0DC08B2D846099
S1130A10B82E09C024FF0AC09F2F9660B92E06C0C5
S1130A2028E030E005C020E130E002C020E132E0FF
S1130A30F801B7FE07C060817181828193810C5FE8
S1130A401F4F06C06081718180E090E00E5F1F4FF0
S1130A50A4010E940206A82EA818FB2DFF77BF2E22
S1130A60B6FE0BC02B2D2E7FA51450F4B4FE0AC085
S1130A70B2FC08C02B2D2E7E05C07A2C2B2D03C072
S1130A807A2C01C0752C24FF0DC0FE01EA0DF11D66
S1130A908081803311F4297E09C022FF06C073943B
S1130AA0739404C0822F867809F0739423FD13C0D5
S1130AB020FF06C05A2C731418F4530C5718732CC7
S1130AC0731468F4B70180E290E02C870E94D0058B
S1130AD073942C85F5CF731410F4371801C0312C9E
S1130AE024FF12C0B70180E390E02C870E94D00558
S1130AF02C8522FF17C021FF03C088E590E002C0C7
S1130B0088E790E0B7010CC0822F867859F021FD68
S1130B1002C080E201C08BE227FD8DE2B70190E0C4
S1130B200E94D005A51438F4B70180E390E00E9438
S1130B30D0055A94F7CFAA94F401EA0DF11D8081EF
S1130B40B70190E00E94D005A110F5CF332009F43D
S1130B5051CEB70180E290E00E94D0053A94F6CFDE
S1130B60F7018681978102C08FEF9FEF2C96E2E117
S1130B700C947C06FC010590615070400110D8F77C
S1130B80809590958E0F9F1F0895FC0161507040D1
S1130B9001900110D8F7809590958E0F9F1F0895AE
S1130BA00F931F93CF93DF93182F092FEB018B81A2
S1130BB081FD03C08FEF9FEF20C082FF10C04E81E4
S1130BC05F812C813D81421753077CF4E881F981D0
S1130BD09F012F5F3F4F39832883108306C0E88528
S1130BE0F985812F0995892B29F72E813F812F5F64
S1130BF03F4F3F832E83812F902FDF91CF911F9101
S1130C000F910895FA01AA27283051F1203181F17A
S1130C10E8946F936E7F6E5F7F4F8F4F9F4FAF4F00
S1130C20B1E03ED0B4E03CD0670F781F891F9A1F13
S1130C30A11D680F791F8A1F911DA11D6A0F711DC7
S1130C40811D911DA11D20D009F468943F912AE0D3
S1130C50269F11243019305D3193DEF6CF010895BB
S1130C60462F4770405D4193B3E00FD0C9F7F6CFEC
S1130C70462F4F70405D4A3318F0495D31FD4052B4
S1130C80419302D0A9F7EACFB4E0A695979587954A
S1130C9077956795BA95C9F7009761057105089529
S1130CA09B01AC010A2E06945795479537952795D5
S1130CB0BA95C9F7620F731F841F951FA01D08956D
S1130CC02F923F924F925F926F927F928F929F9258
S1130CD0AF92BF92CF92DF92EF92FF920F931F9346
S1130CE0CF93DF93CDB7DEB7CA1BDB0B0FB6F894F7
S1130CF0DEBF0FBECDBF09942A88398848885F8437
S1130D006E847D848C849B84AA84B984C884DF80A7
S1130D10EE80FD800C811B81AA81B981CE0FD11D8B
S1130D200FB6F894DEBF0FBECDBFED010895F89461
S1050D30FFCFEF
S1130D320125640057697220686162656E206469E6
S1130D426573652057657274653A0A005468657262
S1130D526D6F6D657465723A2000506F74656E74C0
S1130D62696F6D657465723A200057697220686113
S1130D7262656E2065696E656E20447574792043E0
S10F0D8279636C6520766F6E3A200000E7
S9030000FC
