S00C00006D61696E2E7372656373
S11300000C9434000C9446000C9446000C94460066
S11300100C9446000C9446000C9446000C94460044
S11300200C9446000C9446000C9446000C94460034
S11300300C9446000C9446000C9446000C94460024
S11300400C9466000C9446000C9446000C944600F4
S11300500C9446000C9446000C9446000C94460004
S11300600C9446000C94460011241FBECFEFD8E038
S1130070DEBFCDBF21E0A0E0B1E001C01D92A730FA
S1130080B207E1F70E94C8000C9469010C940000C7
S11300904FB7F8942091020130910301822B932BE6
S11300A090930301809302014FBF08954FB7F894D2
S11300B0209102013091030180959095822393232E
S11300C090930301809302014FBF08951F920F92F2
S11300D00FB60F9211242F933F934F935F936F9317
S11300E07F938F939F93AF93BF93EF93FF9386E098
S11300F086BD8091000190910101019690930101C8
S113010080930001883E934041F4109201011092C3
S1130110000188E090E00E94480040910001509165
S113012001019A0136952795ABE7B4E10E945A0183
S11301309695879562E3689F9001699F300D11241D
S113014042175307A1F4309904C081E090E00E9463
S113015048004A9904C082E090E00E9448008091DF
S11301600601883021F484E090E00E944800FF9169
S1130170EF91BF91AF919F918F917F916F915F911B
S11301804F913F912F910F900FBE0F901F90189594
S11301908BB187628BB988B1836088B985B180934C
S11301A0040185B18F6085B982E087B98FE084B995
S11301B086E086BD85B5887F85BD85B5836085BDB0
S11301C0EEE6F0E0808181608083789489B1837069
S11301D08093050189B120910501807290E0959585
S11301E087959595879595958795822B809305019D
S11301F08091050180930601C7E0809102019091EE
S1130200030181FFFACF82E090E00E9456002FC0E4
S1130210809102019091030183FF1BC088E090E06C
S11302200E94560080910401887F8093040180918C
S1130230040190910601892B8093040180910401AB
S113024085B985B180930401809106018F5F809305
S11302500601809102019091030182FF08C084E0AD
S113026090E00E94560080910501809306018091E0
S113027002019091030180FFCBCF81E090E00E94C6
S1130280560089B183708093050129B1409105011D
S1130290207230E0C9019595879595958795959538
S11302A08795842B80930501809105018093060135
S11302B0C5B9A3CFA29FB001B39FC001A39F700D86
S11302C0811D1124911DB29F700D811D1124911D5A
S10902D00895F894FFCF2D
S9030000FC
