:100000000C9434000C9446000C9446000C9446006A
:100010000C9446000C9446000C9446000C94460048
:100020000C9446000C9446000C9446000C94460038
:100030000C9446000C94AE000C9446000C944600C0
:100040000C9446000C9446000C9446000C94460018
:100050000C9446000C9446000C9446000C94460008
:100060000C9446000C94460011241FBECFEFD8E03C
:10007000DEBFCDBF21E0A0E0B1E001C01D92AE32F5
:10008000B207E1F70E945C010C94AA010C940000F5
:10009000309919C089B1837080932C0129B14091A6
:1000A0002C01207230E0C90195958795959587952B
:1000B00095958795842B80932C0180912C018093BA
:1000C0002D0187E085B94A991CC090912D0180913E
:1000D0002B019817B1F080912A01887F80932A0123
:1000E00080912A0190912D01892B80932A01809182
:1000F0002A0185B985B180932A0180912D018093D1
:100100002B0180912D01883021F480912C01809366
:100110002D0180912D0180932B0181E080931101AD
:10012000089580912D018F5F80932D0181E0809350
:1001300009010895E42FF0E0EE0FFF1FEE0FFF1FFF
:10014000EE0FFF1FEE5FFE4F718360839383828308
:1001500016821582178281E0848308951F920F9280
:100160000FB60F9211242F933F934F935F938F936A
:100170009F93EF93FF9380E090E0FC01EE0FFF1F51
:10018000EE0FFF1FEE0FFF1FEE5FFE4F27812130A6
:1001900009F080C0FC01EE0FFF1FEE0FFF1FEE0FF6
:1001A000FF1FEE5FFE4F2481213009F044C02091F3
:1001B0000001309101012F5F3F4F309301012093E7
:1001C0000001293E334008F465C0FC01EE0FFF1F1B
:1001D000EE0FFF1FEE0FFF1FEE5FFE4F25813681F2
:1001E0002F5F3F4F3683258325B115B84581568152
:1001F0002081318142175307C9F4F894FC01EE0FB6
:10020000FF1FEE0FFF1FEE0FFF1FEE5FFE4F168268
:10021000158217827894FC01EE0FFF1FEE0FFF1F6F
:10022000EE0FFF1FEE5FFE4F22813381109201011E
:10023000109200012FC0FC01EE0FFF1FEE0FFF1FF9
:10024000EE0FFF1FEE5FFE4F258136812F5F3F4F80
:10025000368325834581568120813181421753079A
:10026000C9F4F894FC01EE0FFF1FEE0FFF1FEE0F15
:10027000FF1FEE5FFE4F1682158217827894FC01F5
:10028000EE0FFF1FEE0FFF1FEE0FFF1FEE5FFE4F83
:100290002281338101968530910509F06ECFFF915F
:1002A000EF919F918F915F914F913F912F910F907F
:1002B0000FBE0F901F9018958BB187628BB988B1D4
:1002C000836088B985B180932A0185B18F6085B933
:1002D00082E087B98FE084B9E1E8F0E08081887F2F
:1002E0008083808182608083EFE6F0E0808181609E
:1002F00080838EEF90E090938500809384007894C3
:1003000089B1837080932C0189B120912C01807276
:1003100090E0959587959595879595958795822BEE
:1003200080932C0180912C0180932D0140E064E6A4
:1003300070E081E990E00E949A0041E065E070E0A1
:1003400088E490E00E949A0081E080930901809304
:080350001101FFCFF894FFCF6B
:00000001FF
