:100000000C9434000C9459000C9446000C94460057
:100010000C9448000C9446000C9446000C94460046
:100020000C9446000C9446000C9446000C94460038
:100030000C9446000C9446000C9446000C94460028
:100040000C9446000C9446000C9446000C94460018
:100050000C9446000C9446000C9446000C94460008
:100060000C9446000C94460011241FBECFEFD8E03C
:10007000DEBFCDBF21E0A0E0B1E001C01D92A43001
:10008000B207E1F70E9468000C94C5000C940000D0
:100090001F920F920FB60F9211248F9385B1876034
:1000A00085B9109200018F910F900FBE0F901F9095
:1000B00018951F920F920FB60F9211248F9381E023
:1000C000809300018F910F900FBE0F901F90189595
:1000D0008BB18F618BB9409A85B18093010187E024
:1000E00084B985B1876085B9E9E6F0E080818C7FCD
:1000F0008083808182608083E89AECE6F0E08081F2
:1001000081608083E8E6F0E080818260808378947B
:10011000809100018823E1F349B1437040930201CB
:1001200029B1207430E0C9019595879595958795FB
:1001300095958795842B80930201809303018830E5
:1001400038F790910001992319F304C090910001B0
:100150009923F1F290910101987F892B80930101FD
:1001600085B985B1809301012FEF83ED90E3215094
:1001700080409040E1F700C00000809103018F5F54
:0E01800080930301883010F3C3CFF894FFCFB3
:00000001FF
