S00A000055312E7372656394
S11300000C9434000C943E000C943E000C943E007E
S11300100C943E000C943E000C943E000C943E0064
S11300200C943E000C943E000C943E000C943E0054
S11300300C943E000C943E000C943E000C943E0044
S11300400C943E000C943E000C943E000C943E0034
S11300500C943E000C943E000C943E000C943E0024
S11300600C943E000C943E0011241FBECFEFD8E048
S1130070DEBFCDBF0E9440000C9454000C940000DD
S1130080219A85B1836085B90CC0299A01C0299849
S11300902FEF83ED90E3215080409040E1F700C0C2
S10F00A000001899F2CFF3CFF894FFCFC2
S9030000FC
