:100000000C9434000C943E000C943E000C943E0082
:100010000C943E000C943E000C943E000C943E0068
:100020000C943E000C943E000C943E000C943E0058
:100030000C943E000C943E000C943E000C943E0048
:100040000C943E000C943E000C943E000C943E0038
:100050000C943E000C943E000C943E000C943E0028
:100060000C943E000C943E0011241FBECFEFD8E04C
:10007000DEBFCDBF0E9440000C945F000C940000D6
:100080008FE084B995B187E0892785B920E030E019
:1000900078EE6DEF57E0F0E0E0E00EC045B14527A7
:1000A00045B901970097D1F72F5F3F4F283E8DEF5D
:1000B000380710F02F2F3E2F872F962FEFCFF89471
:0200C000FFCF70
:00000001FF
