:100000000C9434000C9446000C9446000C9446006A
:100010000C9446000C9446000C9446000C94460048
:100020000C9446000C9446000C9446000C94460038
:100030000C9446000C9446000C9446000C94460028
:100040000C946F000C9446000C9446000C944600EF
:100050000C9446000C9446000C9446000C94460008
:100060000C9446000C94460011241FBECFEFD8E03C
:10007000DEBFCDBF21E0A0E0B1E001C01D92A730FE
:10008000B207E1F70E94D1000C9471010C940000BA
:100090002FB7F8944091020150910301842B952BC6
:1000A00090930301809302012FBF789408954FB776
:1000B000F89480959095209102013091030182235C
:1000C000932390930301809302014FBF7894089586
:1000D00020910201309103018223932308951F92FE
:1000E0000F920FB60F9211242F933F934F935F936C
:1000F0006F937F938F939F93AF93BF93EF93FF93F0
:1001000086E086BD80910001909101010196909357
:10011000010180930001883E934041F41092010157
:100120001092000188E090E00E9448004091000198
:10013000509101019A0136952795ABE7B4E10E94F1
:1001400062019695879562E3689F9001699F300DE3
:10015000112442175307A1F4309904C081E090E0C4
:100160000E9448004A9904C082E090E00E94480042
:1001700080910601883021F484E090E00E944800DC
:10018000FF91EF91BF91AF919F918F917F916F916F
:100190005F914F913F912F910F900FBE0F901F9045
:1001A00018958BB187628BB988B1836088B985B1A6
:1001B0008093040185B18F6085B982E087B98FE0B3
:1001C00084B986E086BD85B5887F85BD85B58360A9
:1001D00085BDEEE6F0E0808181608083789489B10E
:1001E00083708093050189B1807290E09595879521
:1001F000959587959595879590910501892B809385
:100200000501809105018093060182E090E00E9443
:100210006800892BD1F382E090E00E9457002FC044
:1002200088E090E00E946800892BD9F088E090E097
:100230000E94570080910401887F8093040190916F
:10024000060180910401892B8093040180910401AF
:1002500085B985B180930401809106018F5F8093F9
:10026000060184E090E00E946800892B41F084E060
:1002700090E00E945700809105018093060181E083
:1002800090E00E946800892B59F281E090E00E9482
:10029000570089B183708093050189B1807290E025
:1002A0009595879595958795959587959091050155
:1002B000892B80930501809105018093060187E0D9
:1002C00085B9A3CFA29FB001B39FC001A39F700DBA
:1002D000811D1124911DB29F700D811D1124911D4E
:0602E0000895F894FFCF21
:00000001FF
